{
  "contractName": "MayoralToken",
  "abi": [
    {
      "inputs": [
        {
          "internalType": "string",
          "name": "_name",
          "type": "string"
        },
        {
          "internalType": "string",
          "name": "_symbol",
          "type": "string"
        },
        {
          "internalType": "uint8",
          "name": "_decimal",
          "type": "uint8"
        }
      ],
      "stateMutability": "nonpayable",
      "type": "constructor"
    },
    {
      "anonymous": false,
      "inputs": [
        {
          "indexed": true,
          "internalType": "address",
          "name": "_from",
          "type": "address"
        }
      ],
      "name": "PAUSE",
      "type": "event"
    },
    {
      "anonymous": false,
      "inputs": [
        {
          "indexed": true,
          "internalType": "address",
          "name": "_from",
          "type": "address"
        }
      ],
      "name": "UNPAUSE",
      "type": "event"
    },
    {
      "anonymous": false,
      "inputs": [
        {
          "indexed": true,
          "internalType": "address",
          "name": "_from",
          "type": "address"
        },
        {
          "indexed": true,
          "internalType": "address",
          "name": "_to",
          "type": "address"
        },
        {
          "indexed": false,
          "internalType": "uint256",
          "name": "_value",
          "type": "uint256"
        }
      ],
      "name": "approve",
      "type": "event"
    },
    {
      "anonymous": false,
      "inputs": [
        {
          "indexed": true,
          "internalType": "address",
          "name": "_from",
          "type": "address"
        },
        {
          "indexed": false,
          "internalType": "uint256",
          "name": "_value",
          "type": "uint256"
        }
      ],
      "name": "burn",
      "type": "event"
    },
    {
      "anonymous": false,
      "inputs": [
        {
          "indexed": true,
          "internalType": "address",
          "name": "_from",
          "type": "address"
        },
        {
          "indexed": true,
          "internalType": "address",
          "name": "_to",
          "type": "address"
        },
        {
          "indexed": false,
          "internalType": "uint256",
          "name": "_value",
          "type": "uint256"
        }
      ],
      "name": "decreasedallowance",
      "type": "event"
    },
    {
      "anonymous": false,
      "inputs": [
        {
          "indexed": true,
          "internalType": "address",
          "name": "_from",
          "type": "address"
        },
        {
          "indexed": true,
          "internalType": "address",
          "name": "_to",
          "type": "address"
        },
        {
          "indexed": false,
          "internalType": "uint256",
          "name": "_value",
          "type": "uint256"
        }
      ],
      "name": "increasedallowance",
      "type": "event"
    },
    {
      "anonymous": false,
      "inputs": [
        {
          "indexed": true,
          "internalType": "address",
          "name": "_from",
          "type": "address"
        },
        {
          "indexed": false,
          "internalType": "uint256",
          "name": "_value",
          "type": "uint256"
        }
      ],
      "name": "mint",
      "type": "event"
    },
    {
      "anonymous": false,
      "inputs": [
        {
          "indexed": true,
          "internalType": "address",
          "name": "_to",
          "type": "address"
        }
      ],
      "name": "renounceownership",
      "type": "event"
    },
    {
      "anonymous": false,
      "inputs": [
        {
          "indexed": true,
          "internalType": "address",
          "name": "_from",
          "type": "address"
        },
        {
          "indexed": true,
          "internalType": "address",
          "name": "_to",
          "type": "address"
        },
        {
          "indexed": false,
          "internalType": "uint256",
          "name": "_value",
          "type": "uint256"
        }
      ],
      "name": "transfer",
      "type": "event"
    },
    {
      "anonymous": false,
      "inputs": [
        {
          "indexed": true,
          "internalType": "address",
          "name": "_to",
          "type": "address"
        },
        {
          "indexed": false,
          "internalType": "uint256",
          "name": "_value",
          "type": "uint256"
        }
      ],
      "name": "withdraw",
      "type": "event"
    },
    {
      "inputs": [],
      "name": "ShowOwner",
      "outputs": [
        {
          "internalType": "address",
          "name": "",
          "type": "address"
        }
      ],
      "stateMutability": "view",
      "type": "function"
    },
    {
      "inputs": [],
      "name": "ReturnName",
      "outputs": [
        {
          "internalType": "string",
          "name": "",
          "type": "string"
        }
      ],
      "stateMutability": "view",
      "type": "function"
    },
    {
      "inputs": [],
      "name": "ReturnSymbol",
      "outputs": [
        {
          "internalType": "string",
          "name": "",
          "type": "string"
        }
      ],
      "stateMutability": "view",
      "type": "function"
    },
    {
      "inputs": [],
      "name": "ReturnDecimal",
      "outputs": [
        {
          "internalType": "uint256",
          "name": "",
          "type": "uint256"
        }
      ],
      "stateMutability": "view",
      "type": "function"
    },
    {
      "inputs": [],
      "name": "ShowTotalSupply",
      "outputs": [
        {
          "internalType": "uint256",
          "name": "",
          "type": "uint256"
        }
      ],
      "stateMutability": "view",
      "type": "function"
    },
    {
      "inputs": [
        {
          "internalType": "address",
          "name": "_recieve",
          "type": "address"
        },
        {
          "internalType": "uint256",
          "name": "_value",
          "type": "uint256"
        }
      ],
      "name": "SetAllowance",
      "outputs": [
        {
          "internalType": "bool",
          "name": "success",
          "type": "bool"
        }
      ],
      "stateMutability": "nonpayable",
      "type": "function"
    },
    {
      "inputs": [
        {
          "internalType": "address",
          "name": "_recieve",
          "type": "address"
        },
        {
          "internalType": "uint256",
          "name": "_value",
          "type": "uint256"
        }
      ],
      "name": "IncreaseAllowance",
      "outputs": [
        {
          "internalType": "bool",
          "name": "success",
          "type": "bool"
        }
      ],
      "stateMutability": "nonpayable",
      "type": "function"
    },
    {
      "inputs": [
        {
          "internalType": "address",
          "name": "_recieve",
          "type": "address"
        },
        {
          "internalType": "uint256",
          "name": "_value",
          "type": "uint256"
        }
      ],
      "name": "DecreaseAllowance",
      "outputs": [
        {
          "internalType": "bool",
          "name": "success",
          "type": "bool"
        }
      ],
      "stateMutability": "nonpayable",
      "type": "function"
    },
    {
      "inputs": [
        {
          "internalType": "address",
          "name": "_to",
          "type": "address"
        },
        {
          "internalType": "uint256",
          "name": "_value",
          "type": "uint256"
        }
      ],
      "name": "Transfer",
      "outputs": [
        {
          "internalType": "bool",
          "name": "success",
          "type": "bool"
        }
      ],
      "stateMutability": "nonpayable",
      "type": "function"
    },
    {
      "inputs": [
        {
          "internalType": "address",
          "name": "_who",
          "type": "address"
        }
      ],
      "name": "CheckBalance",
      "outputs": [
        {
          "internalType": "uint256",
          "name": "",
          "type": "uint256"
        }
      ],
      "stateMutability": "view",
      "type": "function"
    },
    {
      "inputs": [
        {
          "internalType": "address",
          "name": "_to",
          "type": "address"
        }
      ],
      "name": "Renounce",
      "outputs": [
        {
          "internalType": "bool",
          "name": "success",
          "type": "bool"
        }
      ],
      "stateMutability": "nonpayable",
      "type": "function"
    }
  ],
  "bytecode": "0x60806040523480156200001157600080fd5b5060405162001885380380620018858339818101604052810190620000379190620003ef565b82600290805190602001906200004f92919062000164565b5081600390805190602001906200006892919062000164565b5080600460006101000a81548160ff021916908360ff16021790555033600160006101000a81548173ffffffffffffffffffffffffffffffffffffffff021916908373ffffffffffffffffffffffffffffffffffffffff16021790555060005460056000600160009054906101000a900473ffffffffffffffffffffffffffffffffffffffff1673ffffffffffffffffffffffffffffffffffffffff1673ffffffffffffffffffffffffffffffffffffffff168152602001908152602001600020819055506001600760006101000a81548160ff0219169083600181111562000156576200015562000489565b5b02179055505050506200051d565b8280546200017290620004e7565b90600052602060002090601f016020900481019282620001965760008555620001e2565b82601f10620001b157805160ff1916838001178555620001e2565b82800160010185558215620001e2579182015b82811115620001e1578251825591602001919060010190620001c4565b5b509050620001f19190620001f5565b5090565b5b8082111562000210576000816000905550600101620001f6565b5090565b6000604051905090565b600080fd5b600080fd5b600080fd5b600080fd5b6000601f19601f8301169050919050565b7f4e487b7100000000000000000000000000000000000000000000000000000000600052604160045260246000fd5b6200027d8262000232565b810181811067ffffffffffffffff821117156200029f576200029e62000243565b5b80604052505050565b6000620002b462000214565b9050620002c2828262000272565b919050565b600067ffffffffffffffff821115620002e557620002e462000243565b5b620002f08262000232565b9050602081019050919050565b60005b838110156200031d57808201518184015260208101905062000300565b838111156200032d576000848401525b50505050565b60006200034a6200034484620002c7565b620002a8565b9050828152602081018484840111156200036957620003686200022d565b5b62000376848285620002fd565b509392505050565b600082601f83011262000396576200039562000228565b5b8151620003a884826020860162000333565b91505092915050565b600060ff82169050919050565b620003c981620003b1565b8114620003d557600080fd5b50565b600081519050620003e981620003be565b92915050565b6000806000606084860312156200040b576200040a6200021e565b5b600084015167ffffffffffffffff8111156200042c576200042b62000223565b5b6200043a868287016200037e565b935050602084015167ffffffffffffffff8111156200045e576200045d62000223565b5b6200046c868287016200037e565b92505060406200047f86828701620003d8565b9150509250925092565b7f4e487b7100000000000000000000000000000000000000000000000000000000600052602160045260246000fd5b7f4e487b7100000000000000000000000000000000000000000000000000000000600052602260045260246000fd5b600060028204905060018216806200050057607f821691505b60208210811415620005175762000516620004b8565b5b50919050565b611358806200052d6000396000f3fe608060405234801561001057600080fd5b50600436106100a95760003560e01c806369ca02dd1161007157806369ca02dd1461018c57806383995b9a146101bc57806396ce267a146101ec5780639d2e24221461020a578063ad1bef1e14610228578063dafb0d2214610246576100a9565b80630bf4532c146100ae5780630e7f2be7146100cc5780631963a693146100fc5780632e4d59c41461012c5780633e7279a31461015c575b600080fd5b6100b6610264565b6040516100c39190610e63565b60405180910390f35b6100e660048036038101906100e19190610f0d565b61027e565b6040516100f39190610f68565b60405180910390f35b61011660048036038101906101119190610f0d565b610459565b6040516101239190610f68565b60405180910390f35b61014660048036038101906101419190610f83565b6106b5565b6040516101539190610e63565b60405180910390f35b61017660048036038101906101719190610f0d565b6106fe565b6040516101839190610f68565b60405180910390f35b6101a660048036038101906101a19190610f0d565b6108cd565b6040516101b39190610f68565b60405180910390f35b6101d660048036038101906101d19190610f83565b610b7b565b6040516101e39190610f68565b60405180910390f35b6101f4610ca0565b6040516102019190610fbf565b60405180910390f35b610212610cca565b60405161021f9190611073565b60405180910390f35b610230610d5c565b60405161023d9190611073565b60405180910390f35b61024e610dee565b60405161025b9190610e63565b60405180910390f35b6000600460009054906101000a900460ff1660ff16905090565b600060011515600460019054906101000a900460ff16151514156102a157600080fd5b600073ffffffffffffffffffffffffffffffffffffffff168373ffffffffffffffffffffffffffffffffffffffff1614156102db57600080fd5b61036a82600660003373ffffffffffffffffffffffffffffffffffffffff1673ffffffffffffffffffffffffffffffffffffffff16815260200190815260200160002060008673ffffffffffffffffffffffffffffffffffffffff1673ffffffffffffffffffffffffffffffffffffffff16815260200190815260200160002054610df790919063ffffffff16565b600660003373ffffffffffffffffffffffffffffffffffffffff1673ffffffffffffffffffffffffffffffffffffffff16815260200190815260200160002060008573ffffffffffffffffffffffffffffffffffffffff1673ffffffffffffffffffffffffffffffffffffffff168152602001908152602001600020819055508273ffffffffffffffffffffffffffffffffffffffff163373ffffffffffffffffffffffffffffffffffffffff167fbcbc2f27353563a7798372a0dfb7f4fc97a4424532d94ac5727c2b6d8445ba11846040516104479190610e63565b60405180910390a36001905092915050565b600060011515600460019054906101000a900460ff161515141561047c57600080fd5b600073ffffffffffffffffffffffffffffffffffffffff168373ffffffffffffffffffffffffffffffffffffffff1614156104b657600080fd5b81600560003373ffffffffffffffffffffffffffffffffffffffff1673ffffffffffffffffffffffffffffffffffffffff1681526020019081526020016000205411610537576040517f08c379a000000000000000000000000000000000000000000000000000000000815260040161052e906110e1565b60405180910390fd5b6105c682600660003373ffffffffffffffffffffffffffffffffffffffff1673ffffffffffffffffffffffffffffffffffffffff16815260200190815260200160002060008673ffffffffffffffffffffffffffffffffffffffff1673ffffffffffffffffffffffffffffffffffffffff16815260200190815260200160002054610e1e90919063ffffffff16565b600660003373ffffffffffffffffffffffffffffffffffffffff1673ffffffffffffffffffffffffffffffffffffffff16815260200190815260200160002060008573ffffffffffffffffffffffffffffffffffffffff1673ffffffffffffffffffffffffffffffffffffffff168152602001908152602001600020819055508273ffffffffffffffffffffffffffffffffffffffff163373ffffffffffffffffffffffffffffffffffffffff167fe43a4c0c8b584625b0f915e64cd33950433cbbc5e42b3335ca72d313be300aec846040516106a39190610e63565b60405180910390a36001905092915050565b6000600560008373ffffffffffffffffffffffffffffffffffffffff1673ffffffffffffffffffffffffffffffffffffffff168152602001908152602001600020549050919050565b600060011515600460019054906101000a900460ff161515141561072157600080fd5b81600560003373ffffffffffffffffffffffffffffffffffffffff1673ffffffffffffffffffffffffffffffffffffffff1681526020019081526020016000205410156107a3576040517f08c379a000000000000000000000000000000000000000000000000000000000815260040161079a906110e1565b60405180910390fd5b600073ffffffffffffffffffffffffffffffffffffffff168373ffffffffffffffffffffffffffffffffffffffff1614156107dd57600080fd5b81600660003373ffffffffffffffffffffffffffffffffffffffff1673ffffffffffffffffffffffffffffffffffffffff16815260200190815260200160002060008573ffffffffffffffffffffffffffffffffffffffff1673ffffffffffffffffffffffffffffffffffffffff168152602001908152602001600020819055508273ffffffffffffffffffffffffffffffffffffffff163373ffffffffffffffffffffffffffffffffffffffff167fe1f21c67180317619fcafa578cb44275002011f9ad81f61220c62be2c4415336846040516108bb9190610e63565b60405180910390a36001905092915050565b600060011515600460019054906101000a900460ff16151514156108f057600080fd5b81600560003373ffffffffffffffffffffffffffffffffffffffff1673ffffffffffffffffffffffffffffffffffffffff168152602001908152602001600020541015610972576040517f08c379a0000000000000000000000000000000000000000000000000000000008152600401610969906110e1565b60405180910390fd5b600073ffffffffffffffffffffffffffffffffffffffff168373ffffffffffffffffffffffffffffffffffffffff1614156109e2576040517f08c379a00000000000000000000000000000000000000000000000000000000081526004016109d99061114d565b60405180910390fd5b610a3482600560003373ffffffffffffffffffffffffffffffffffffffff1673ffffffffffffffffffffffffffffffffffffffff16815260200190815260200160002054610df790919063ffffffff16565b600560003373ffffffffffffffffffffffffffffffffffffffff1673ffffffffffffffffffffffffffffffffffffffff16815260200190815260200160002081905550610ac982600560008673ffffffffffffffffffffffffffffffffffffffff1673ffffffffffffffffffffffffffffffffffffffff16815260200190815260200160002054610e1e90919063ffffffff16565b600560008573ffffffffffffffffffffffffffffffffffffffff1673ffffffffffffffffffffffffffffffffffffffff168152602001908152602001600020819055508273ffffffffffffffffffffffffffffffffffffffff163373ffffffffffffffffffffffffffffffffffffffff167fbeabacc8ffedac16e9a60acdb2ca743d80c2ebb44977a93fa8e483c74d2b35a884604051610b699190610e63565b60405180910390a36001905092915050565b60003373ffffffffffffffffffffffffffffffffffffffff16600160009054906101000a90505050600073ffffffffffffffffffffffffffffffffffffffff168273ffffffffffffffffffffffffffffffffffffffff161415610c13576040517f08c379a0000000000000000000000000000000000000000000000000000000008152600401610c0a906111b9565b60405180910390fd5b81600160006101000a81548173ffffffffffffffffffffffffffffffffffffffff021916908373ffffffffffffffffffffffffffffffffffffffff1602179055508173ffffffffffffffffffffffffffffffffffffffff167f11bd3ae03dffc45908a76d712d26ce2ed3389fd9a74b3e1468fcaa88557fb37360405160405180910390a260019050919050565b6000600160009054906101000a900473ffffffffffffffffffffffffffffffffffffffff16905090565b606060038054610cd990611208565b80601f0160208091040260200160405190810160405280929190818152602001828054610d0590611208565b8015610d525780601f10610d2757610100808354040283529160200191610d52565b820191906000526020600020905b815481529060010190602001808311610d3557829003601f168201915b5050505050905090565b606060028054610d6b90611208565b80601f0160208091040260200160405190810160405280929190818152602001828054610d9790611208565b8015610de45780601f10610db957610100808354040283529160200191610de4565b820191906000526020600020905b815481529060010190602001808311610dc757829003601f168201915b5050505050905090565b60008054905090565b600082821115610e0a57610e0961123a565b5b8183610e169190611298565b905092915050565b6000808284610e2d91906112cc565b905083811015610e4057610e3f61123a565b5b8091505092915050565b6000819050919050565b610e5d81610e4a565b82525050565b6000602082019050610e786000830184610e54565b92915050565b600080fd5b600073ffffffffffffffffffffffffffffffffffffffff82169050919050565b6000610eae82610e83565b9050919050565b610ebe81610ea3565b8114610ec957600080fd5b50565b600081359050610edb81610eb5565b92915050565b610eea81610e4a565b8114610ef557600080fd5b50565b600081359050610f0781610ee1565b92915050565b60008060408385031215610f2457610f23610e7e565b5b6000610f3285828601610ecc565b9250506020610f4385828601610ef8565b9150509250929050565b60008115159050919050565b610f6281610f4d565b82525050565b6000602082019050610f7d6000830184610f59565b92915050565b600060208284031215610f9957610f98610e7e565b5b6000610fa784828501610ecc565b91505092915050565b610fb981610ea3565b82525050565b6000602082019050610fd46000830184610fb0565b92915050565b600081519050919050565b600082825260208201905092915050565b60005b83811015611014578082015181840152602081019050610ff9565b83811115611023576000848401525b50505050565b6000601f19601f8301169050919050565b600061104582610fda565b61104f8185610fe5565b935061105f818560208601610ff6565b61106881611029565b840191505092915050565b6000602082019050818103600083015261108d818461103a565b905092915050565b7f596f7520646f206e6f7420686176652073756666696369656e742066756e6473600082015250565b60006110cb602083610fe5565b91506110d682611095565b602082019050919050565b600060208201905081810360008301526110fa816110be565b9050919050565b7f596f752063616e742073656e6420746f207a65726f206163636f756e74000000600082015250565b6000611137601d83610fe5565b915061114282611101565b602082019050919050565b600060208201905081810360008301526111668161112a565b9050919050565b7f596f752063616e6e6f7420736574206974206173206f776e6572000000000000600082015250565b60006111a3601a83610fe5565b91506111ae8261116d565b602082019050919050565b600060208201905081810360008301526111d281611196565b9050919050565b7f4e487b7100000000000000000000000000000000000000000000000000000000600052602260045260246000fd5b6000600282049050600182168061122057607f821691505b60208210811415611234576112336111d9565b5b50919050565b7f4e487b7100000000000000000000000000000000000000000000000000000000600052600160045260246000fd5b7f4e487b7100000000000000000000000000000000000000000000000000000000600052601160045260246000fd5b60006112a382610e4a565b91506112ae83610e4a565b9250828210156112c1576112c0611269565b5b828203905092915050565b60006112d782610e4a565b91506112e283610e4a565b9250827fffffffffffffffffffffffffffffffffffffffffffffffffffffffffffffffff0382111561131757611316611269565b5b82820190509291505056fea2646970667358221220350c51a56ff080883ec3ce6cb509738d041fdf37766077cc72e83b2749520c0664736f6c634300080b0033",
  "immutableReferences": {},
  "source": "pragma solidity ^0.8.11;\r\nlibrary SafeMath {\r\n  /**\r\n   * SafeMath mul function\r\n   * @dev function for safe multiply\r\n   **/\r\n  function mul(uint256 a, uint256 b) internal pure returns (uint256) {\r\n    uint256 c = a * b;\r\n    assert(a == 0 || c / a == b);\r\n    return c;\r\n  }\r\n  \r\n  /**\r\n   * SafeMath div funciotn\r\n   * @dev function for safe devide\r\n   **/\r\n  function div(uint256 a, uint256 b) internal pure returns (uint256) {\r\n    uint256 c = a / b;\r\n    return c;\r\n  }\r\n  \r\n  /**\r\n   * SafeMath sub function\r\n   * @dev function for safe subtraction\r\n   **/\r\n  function sub(uint256 a, uint256 b) internal pure returns (uint256) {\r\n    assert(b <= a);\r\n    return a - b;\r\n  }\r\n  \r\n  /**\r\n   * SafeMath add fuction \r\n   * @dev function for safe addition\r\n   **/\r\n  function add(uint256 a, uint256 b) internal pure returns (uint256) {\r\n    uint256 c = a + b;\r\n    assert(c >= a);\r\n    return c;\r\n  }\r\n}\r\n\r\ncontract MayoralToken{\r\n  //USING THE SAFEMATH LIBRARY FOR ARITHMETIC OPERATIONS\r\n    using SafeMath for uint256;\r\n\r\n    // *******VARIABLE DECLARATION***********/\r\n    uint private TotalSupply;\r\n    address private owner;\r\n    string private name;\r\n    string private symbol;\r\n    uint8 private decimal;\r\n    bool private paused;\r\n    mapping (address => uint)balanceOf;\r\n    mapping (address => mapping(address => uint))allowed;\r\n    enum Pause{isPaused,notPaused}\r\n    Pause _PAUSE;\r\n    //*******EVENT DECLARARTION********/\r\n    event transfer(address indexed _from,address indexed _to,uint _value);\r\n    event approve(address indexed _from,address indexed _to,uint _value);\r\n    event mint(address indexed _from,uint _value);\r\n    event burn(address indexed _from,uint _value);\r\n    event PAUSE(address indexed _from);\r\n    event UNPAUSE(address indexed _from);\r\n    event increasedallowance(address indexed _from,address indexed _to, uint _value);\r\n    event decreasedallowance(address indexed _from,address indexed _to, uint _value);\r\n    event withdraw(address indexed _to,uint _value);\r\n    event renounceownership(address indexed _to);\r\n\r\n    //**********CONSTRUCTOR TO DECLARE VALUES  */\r\n\r\n    constructor(string memory _name,string memory _symbol,uint8 _decimal){\r\n      name = _name;\r\n      symbol = _symbol;\r\n      decimal = _decimal;\r\n      owner = msg.sender;\r\n      balanceOf[owner] = TotalSupply;\r\n      _PAUSE = Pause.notPaused;\r\n\r\n    }\r\n \r\n//***********MODIFIER TO ASSIGN ADDRESS OWNER AS OWNER FOR ACCESS CONTROL */\r\n    modifier OnlyOwner(){\r\n        owner == msg.sender;\r\n        _;\r\n    }\r\n\r\n    //******FUNCTION TO PAUSE CONTRACT INCASE OF ISSUES */\r\n    function PauseContract() internal virtual OnlyOwner returns(bool success){\r\n      require(!paused,\"Contract already paused\");\r\n        paused = true;\r\n        _PAUSE = Pause.isPaused;\r\n        emit PAUSE(msg.sender);\r\n        return true;\r\n\r\n    }\r\n\r\n    //**********FUNCTION TO UNPAUSE CONTRACT */\r\n    function UnpauseContract ()internal virtual OnlyOwner returns(bool success){\r\n      require(paused = true,\"Contract is already unpaused\");\r\n        paused = false;\r\n        _PAUSE = Pause.notPaused;\r\n        emit UNPAUSE(msg.sender);\r\n        return true;\r\n    }\r\n\r\n    //****FUNCTION TO SHOW OWNER ADDRESS */\r\n\r\n    function ShowOwner()external virtual view returns(address){\r\n      return owner;\r\n    }\r\n\r\n    //*******FUNCTION TO SHOW TOKEN NAME */\r\n\r\n    function ReturnName()external virtual view returns(string memory){\r\n      return name;\r\n    }\r\n\r\n    //**********FUNCTION TO SHOW TOKEN SYMBOL */\r\n\r\n    function ReturnSymbol()external virtual view returns (string memory){\r\n      return symbol;\r\n    }\r\n\r\n    //**********FUNCTION TO SHOW DECIMAL */\r\n\r\n    function ReturnDecimal()external virtual view returns (uint){\r\n      return decimal;\r\n    }\r\n    \r\n    //**********FUNCTION TO SHOW TOKEN SUPPLY */\r\n    function ShowTotalSupply()external virtual view returns (uint){\r\n        return TotalSupply;\r\n    }\r\n\r\n    //**********FUNCTION TO SET ALLOWANCE */\r\n    function SetAllowance(address _recieve,uint _value) external virtual returns(bool success){\r\n      require(paused != true);\r\n      require(balanceOf[msg.sender] >= _value,\"You do not have sufficient funds\");\r\n      require(_recieve != address(0));\r\n        allowed[msg.sender][_recieve] = _value;\r\n        emit approve(msg.sender,_recieve,_value);\r\n        return true;\r\n    }\r\n\r\n    //**********FUNCTION TO INCREASE ALLOWANCE */\r\n\r\n    function IncreaseAllowance(address _recieve,uint _value) external virtual returns (bool success){\r\n      require(paused != true);\r\n      require(_recieve != address(0));\r\n      require(balanceOf[msg.sender] > _value,\"You do not have sufficient funds\");\r\n      allowed[msg.sender][_recieve] = allowed[msg.sender][_recieve].add(_value);\r\n      emit increasedallowance(msg.sender, _recieve, _value);\r\n      return true;\r\n    }\r\n    \r\n     //**********FUNCTION TO DECREASE ALLOWANCE */\r\n  \r\n\r\n    function DecreaseAllowance(address _recieve,uint _value) external virtual returns (bool success){\r\n      require(paused != true);\r\n      require(_recieve != address(0));\r\n      allowed[msg.sender][_recieve] = allowed[msg.sender][_recieve].sub(_value);\r\n       emit decreasedallowance(msg.sender, _recieve, _value);\r\n      return true;\r\n    }\r\n\r\n     //**********FUNCTION TO SEND TOKENS */\r\n\r\n    function Transfer(address _to,uint _value)external virtual returns(bool success){\r\n      require(paused != true);\r\n        require(balanceOf[msg.sender] >= _value,\"You do not have sufficient funds\");\r\n        require(_to != address(0),\"You cant send to zero account\");\r\n        balanceOf[msg.sender] = balanceOf[msg.sender].sub(_value);\r\n        balanceOf[_to] = balanceOf[_to].add( _value);\r\n        emit transfer(msg.sender, _to,_value);\r\n        return true;\r\n    }\r\n\r\n     //**********FUNCTION TO CHECK BALANCE OF HOLDERS */\r\n\r\n    function CheckBalance(address _who)external virtual view returns(uint){\r\n        return balanceOf[_who];\r\n    }\r\n\r\n     //**********FUNCTION TO MINT MORE TOKENS */\r\n\r\n    function Mint(address _from,uint _value)internal virtual returns(bool success){\r\n      require(paused != true);\r\n      require(_from != address(0));\r\n        require(_value != 0,\"You have input an invalid amount\");\r\n        TotalSupply = TotalSupply.add(_value);\r\n        balanceOf[_from] = balanceOf[_from].add(_value);\r\n        return true;\r\n    }\r\n\r\n     //**********FUNCTION TO BURN TOKENS */\r\n\r\n    function Burn(address _from,uint _value)internal virtual returns(bool success){\r\n      require(paused != true);\r\n      require(_from != address(0));\r\n      require(_value != 0,\"You have input an invalid amount\");\r\n      require(_value <= TotalSupply,\"You cannot burn entire supply\");\r\n      balanceOf[_from] = balanceOf[_from].sub(_value);\r\n      return true;\r\n    }\r\n\r\n    //******WITHDRAW FUNCTION INCASE OF ACCIDENTAL ETHER TRANSFER */\r\n    function Withdraw(address payable _to,uint _value)internal virtual OnlyOwner returns (bool success){\r\n      require(_value <= address(this).balance);\r\n      _to.transfer(_value);\r\n      emit withdraw(_to,_value);\r\n      return true;\r\n      \r\n    }\r\n\r\n    //***********RENOUNCE OWNERSHIP */\r\n    function Renounce(address _to)external virtual OnlyOwner returns(bool success){\r\n      require(_to != address(0),\"You cannot set it as owner\");\r\n      owner = _to;\r\n      emit renounceownership(_to);\r\n      return true;\r\n      \r\n\r\n    }\r\n\r\n    //*******CHECK ALLOWANCE */\r\n    function CheckAllowance(address _to)internal virtual view returns(uint){\r\n      return allowed[owner][_to];\r\n    }\r\n}   ",
  "sourcePath": "C:\\Users\\MAYOWA\\Desktop\\TokenVendor\\contracts\\MayoralToken.sol",
  "compiler": {
    "name": "solc",
    "version": "0.8.11+commit.d7f03943.Emscripten.clang"
  },
  "schemaVersion": "3.4.5",
  "updatedAt": "2022-06-14T16:35:34.723Z",
  "devdoc": {
    "kind": "dev",
    "methods": {},
    "version": 1
  },
  "userdoc": {
    "kind": "user",
    "methods": {},
    "version": 1
  }
}