{
  "contractName": "OGG",
  "abi": [
    {
      "inputs": [
        {
          "internalType": "uint256",
          "name": "_supply",
          "type": "uint256"
        }
      ],
      "stateMutability": "nonpayable",
      "type": "constructor"
    },
    {
      "anonymous": false,
      "inputs": [
        {
          "indexed": true,
          "internalType": "address",
          "name": "_from",
          "type": "address"
        }
      ],
      "name": "PAUSE",
      "type": "event"
    },
    {
      "anonymous": false,
      "inputs": [
        {
          "indexed": true,
          "internalType": "address",
          "name": "_from",
          "type": "address"
        }
      ],
      "name": "UNPAUSE",
      "type": "event"
    },
    {
      "anonymous": false,
      "inputs": [
        {
          "indexed": true,
          "internalType": "address",
          "name": "_from",
          "type": "address"
        },
        {
          "indexed": true,
          "internalType": "address",
          "name": "_to",
          "type": "address"
        },
        {
          "indexed": false,
          "internalType": "uint256",
          "name": "_value",
          "type": "uint256"
        }
      ],
      "name": "approve",
      "type": "event"
    },
    {
      "anonymous": false,
      "inputs": [
        {
          "indexed": true,
          "internalType": "address",
          "name": "_from",
          "type": "address"
        },
        {
          "indexed": false,
          "internalType": "uint256",
          "name": "_value",
          "type": "uint256"
        }
      ],
      "name": "burn",
      "type": "event"
    },
    {
      "anonymous": false,
      "inputs": [
        {
          "indexed": true,
          "internalType": "address",
          "name": "_from",
          "type": "address"
        },
        {
          "indexed": true,
          "internalType": "address",
          "name": "_to",
          "type": "address"
        },
        {
          "indexed": false,
          "internalType": "uint256",
          "name": "_value",
          "type": "uint256"
        }
      ],
      "name": "decreasedallowance",
      "type": "event"
    },
    {
      "anonymous": false,
      "inputs": [
        {
          "indexed": true,
          "internalType": "address",
          "name": "_from",
          "type": "address"
        },
        {
          "indexed": true,
          "internalType": "address",
          "name": "_to",
          "type": "address"
        },
        {
          "indexed": false,
          "internalType": "uint256",
          "name": "_value",
          "type": "uint256"
        }
      ],
      "name": "increasedallowance",
      "type": "event"
    },
    {
      "anonymous": false,
      "inputs": [
        {
          "indexed": true,
          "internalType": "address",
          "name": "_from",
          "type": "address"
        },
        {
          "indexed": false,
          "internalType": "uint256",
          "name": "_value",
          "type": "uint256"
        }
      ],
      "name": "mint",
      "type": "event"
    },
    {
      "anonymous": false,
      "inputs": [
        {
          "indexed": true,
          "internalType": "address",
          "name": "_to",
          "type": "address"
        }
      ],
      "name": "renounceownership",
      "type": "event"
    },
    {
      "anonymous": false,
      "inputs": [
        {
          "indexed": true,
          "internalType": "address",
          "name": "_from",
          "type": "address"
        },
        {
          "indexed": true,
          "internalType": "address",
          "name": "_to",
          "type": "address"
        },
        {
          "indexed": false,
          "internalType": "uint256",
          "name": "_value",
          "type": "uint256"
        }
      ],
      "name": "transfer",
      "type": "event"
    },
    {
      "anonymous": false,
      "inputs": [
        {
          "indexed": true,
          "internalType": "address",
          "name": "_to",
          "type": "address"
        },
        {
          "indexed": false,
          "internalType": "uint256",
          "name": "_value",
          "type": "uint256"
        }
      ],
      "name": "withdraw",
      "type": "event"
    },
    {
      "inputs": [
        {
          "internalType": "address",
          "name": "_who",
          "type": "address"
        }
      ],
      "name": "CheckBalance",
      "outputs": [
        {
          "internalType": "uint256",
          "name": "",
          "type": "uint256"
        }
      ],
      "stateMutability": "view",
      "type": "function",
      "constant": true
    },
    {
      "inputs": [
        {
          "internalType": "address",
          "name": "_recieve",
          "type": "address"
        },
        {
          "internalType": "uint256",
          "name": "_value",
          "type": "uint256"
        }
      ],
      "name": "DecreaseAllowance",
      "outputs": [
        {
          "internalType": "bool",
          "name": "success",
          "type": "bool"
        }
      ],
      "stateMutability": "nonpayable",
      "type": "function"
    },
    {
      "inputs": [
        {
          "internalType": "address",
          "name": "_recieve",
          "type": "address"
        },
        {
          "internalType": "uint256",
          "name": "_value",
          "type": "uint256"
        }
      ],
      "name": "IncreaseAllowance",
      "outputs": [
        {
          "internalType": "bool",
          "name": "success",
          "type": "bool"
        }
      ],
      "stateMutability": "nonpayable",
      "type": "function"
    },
    {
      "inputs": [
        {
          "internalType": "address",
          "name": "_to",
          "type": "address"
        }
      ],
      "name": "Renounce",
      "outputs": [
        {
          "internalType": "bool",
          "name": "success",
          "type": "bool"
        }
      ],
      "stateMutability": "nonpayable",
      "type": "function"
    },
    {
      "inputs": [],
      "name": "ReturnDecimal",
      "outputs": [
        {
          "internalType": "uint256",
          "name": "",
          "type": "uint256"
        }
      ],
      "stateMutability": "view",
      "type": "function",
      "constant": true
    },
    {
      "inputs": [],
      "name": "ReturnName",
      "outputs": [
        {
          "internalType": "string",
          "name": "",
          "type": "string"
        }
      ],
      "stateMutability": "view",
      "type": "function",
      "constant": true
    },
    {
      "inputs": [],
      "name": "ReturnSymbol",
      "outputs": [
        {
          "internalType": "string",
          "name": "",
          "type": "string"
        }
      ],
      "stateMutability": "view",
      "type": "function",
      "constant": true
    },
    {
      "inputs": [
        {
          "internalType": "address",
          "name": "_recieve",
          "type": "address"
        },
        {
          "internalType": "uint256",
          "name": "_value",
          "type": "uint256"
        }
      ],
      "name": "SetAllowance",
      "outputs": [
        {
          "internalType": "bool",
          "name": "success",
          "type": "bool"
        }
      ],
      "stateMutability": "nonpayable",
      "type": "function"
    },
    {
      "inputs": [],
      "name": "ShowOwner",
      "outputs": [
        {
          "internalType": "address",
          "name": "",
          "type": "address"
        }
      ],
      "stateMutability": "view",
      "type": "function",
      "constant": true
    },
    {
      "inputs": [],
      "name": "ShowTotalSupply",
      "outputs": [
        {
          "internalType": "uint256",
          "name": "",
          "type": "uint256"
        }
      ],
      "stateMutability": "view",
      "type": "function",
      "constant": true
    },
    {
      "inputs": [
        {
          "internalType": "address",
          "name": "_to",
          "type": "address"
        },
        {
          "internalType": "uint256",
          "name": "_value",
          "type": "uint256"
        }
      ],
      "name": "Transfer",
      "outputs": [
        {
          "internalType": "bool",
          "name": "success",
          "type": "bool"
        }
      ],
      "stateMutability": "nonpayable",
      "type": "function"
    }
  ],
  "bytecode": "0x60806040523480156200001157600080fd5b5060405162001ae638038062001ae68339818101604052810190620000379190620004eb565b6040518060400160405280600781526020017f4d61796f72616c000000000000000000000000000000000000000000000000008152506040518060400160405280600381526020017f4f4747000000000000000000000000000000000000000000000000000000000081525060128260029080519060200190620000bd929190620003fb565b508160039080519060200190620000d6929190620003fb565b5080600460006101000a81548160ff021916908360ff16021790555033600160006101000a81548173ffffffffffffffffffffffffffffffffffffffff021916908373ffffffffffffffffffffffffffffffffffffffff16021790555060005460056000600160009054906101000a900473ffffffffffffffffffffffffffffffffffffffff1673ffffffffffffffffffffffffffffffffffffffff1673ffffffffffffffffffffffffffffffffffffffff168152602001908152602001600020819055506001600760006101000a81548160ff02191690836001811115620001c457620001c36200051d565b5b02179055505050506200020433670de0b6b3a7640000633b9aca0084620001ec91906200057b565b620001f891906200057b565b6200025c60201b60201c565b503373ffffffffffffffffffffffffffffffffffffffff167f40c10f19c047ae7dfa66d6312b683d2ea3dfbcb4159e96b967c5f4b0a86f2842826040516200024d9190620005ed565b60405180910390a2506200077e565b600060011515600460019054906101000a900460ff16151514156200028057600080fd5b600073ffffffffffffffffffffffffffffffffffffffff168373ffffffffffffffffffffffffffffffffffffffff161415620002bb57600080fd5b600082141562000302576040517f08c379a0000000000000000000000000000000000000000000000000000000008152600401620002f9906200066b565b60405180910390fd5b6200031e82600054620003ca60201b62000df71790919060201c565b6000819055506200037d82600560008673ffffffffffffffffffffffffffffffffffffffff1673ffffffffffffffffffffffffffffffffffffffff16815260200190815260200160002054620003ca60201b62000df71790919060201c565b600560008573ffffffffffffffffffffffffffffffffffffffff1673ffffffffffffffffffffffffffffffffffffffff168152602001908152602001600020819055506001905092915050565b6000808284620003db91906200068d565b905083811015620003f157620003f0620006ea565b5b8091505092915050565b828054620004099062000748565b90600052602060002090601f0160209004810192826200042d576000855562000479565b82601f106200044857805160ff191683800117855562000479565b8280016001018555821562000479579182015b82811115620004785782518255916020019190600101906200045b565b5b5090506200048891906200048c565b5090565b5b80821115620004a75760008160009055506001016200048d565b5090565b600080fd5b6000819050919050565b620004c581620004b0565b8114620004d157600080fd5b50565b600081519050620004e581620004ba565b92915050565b600060208284031215620005045762000503620004ab565b5b60006200051484828501620004d4565b91505092915050565b7f4e487b7100000000000000000000000000000000000000000000000000000000600052602160045260246000fd5b7f4e487b7100000000000000000000000000000000000000000000000000000000600052601160045260246000fd5b60006200058882620004b0565b91506200059583620004b0565b9250817fffffffffffffffffffffffffffffffffffffffffffffffffffffffffffffffff0483118215151615620005d157620005d06200054c565b5b828202905092915050565b620005e781620004b0565b82525050565b6000602082019050620006046000830184620005dc565b92915050565b600082825260208201905092915050565b7f596f75206861766520696e70757420616e20696e76616c696420616d6f756e74600082015250565b6000620006536020836200060a565b915062000660826200061b565b602082019050919050565b60006020820190508181036000830152620006868162000644565b9050919050565b60006200069a82620004b0565b9150620006a783620004b0565b9250827fffffffffffffffffffffffffffffffffffffffffffffffffffffffffffffffff03821115620006df57620006de6200054c565b5b828201905092915050565b7f4e487b7100000000000000000000000000000000000000000000000000000000600052600160045260246000fd5b7f4e487b7100000000000000000000000000000000000000000000000000000000600052602260045260246000fd5b600060028204905060018216806200076157607f821691505b6020821081141562000778576200077762000719565b5b50919050565b611358806200078e6000396000f3fe608060405234801561001057600080fd5b50600436106100a95760003560e01c806369ca02dd1161007157806369ca02dd1461018c57806383995b9a146101bc57806396ce267a146101ec5780639d2e24221461020a578063ad1bef1e14610228578063dafb0d2214610246576100a9565b80630bf4532c146100ae5780630e7f2be7146100cc5780631963a693146100fc5780632e4d59c41461012c5780633e7279a31461015c575b600080fd5b6100b6610264565b6040516100c39190610e63565b60405180910390f35b6100e660048036038101906100e19190610f0d565b61027e565b6040516100f39190610f68565b60405180910390f35b61011660048036038101906101119190610f0d565b610459565b6040516101239190610f68565b60405180910390f35b61014660048036038101906101419190610f83565b6106b5565b6040516101539190610e63565b60405180910390f35b61017660048036038101906101719190610f0d565b6106fe565b6040516101839190610f68565b60405180910390f35b6101a660048036038101906101a19190610f0d565b6108cd565b6040516101b39190610f68565b60405180910390f35b6101d660048036038101906101d19190610f83565b610b7b565b6040516101e39190610f68565b60405180910390f35b6101f4610ca0565b6040516102019190610fbf565b60405180910390f35b610212610cca565b60405161021f9190611073565b60405180910390f35b610230610d5c565b60405161023d9190611073565b60405180910390f35b61024e610dee565b60405161025b9190610e63565b60405180910390f35b6000600460009054906101000a900460ff1660ff16905090565b600060011515600460019054906101000a900460ff16151514156102a157600080fd5b600073ffffffffffffffffffffffffffffffffffffffff168373ffffffffffffffffffffffffffffffffffffffff1614156102db57600080fd5b61036a82600660003373ffffffffffffffffffffffffffffffffffffffff1673ffffffffffffffffffffffffffffffffffffffff16815260200190815260200160002060008673ffffffffffffffffffffffffffffffffffffffff1673ffffffffffffffffffffffffffffffffffffffff16815260200190815260200160002054610e2390919063ffffffff16565b600660003373ffffffffffffffffffffffffffffffffffffffff1673ffffffffffffffffffffffffffffffffffffffff16815260200190815260200160002060008573ffffffffffffffffffffffffffffffffffffffff1673ffffffffffffffffffffffffffffffffffffffff168152602001908152602001600020819055508273ffffffffffffffffffffffffffffffffffffffff163373ffffffffffffffffffffffffffffffffffffffff167fbcbc2f27353563a7798372a0dfb7f4fc97a4424532d94ac5727c2b6d8445ba11846040516104479190610e63565b60405180910390a36001905092915050565b600060011515600460019054906101000a900460ff161515141561047c57600080fd5b600073ffffffffffffffffffffffffffffffffffffffff168373ffffffffffffffffffffffffffffffffffffffff1614156104b657600080fd5b81600560003373ffffffffffffffffffffffffffffffffffffffff1673ffffffffffffffffffffffffffffffffffffffff1681526020019081526020016000205411610537576040517f08c379a000000000000000000000000000000000000000000000000000000000815260040161052e906110e1565b60405180910390fd5b6105c682600660003373ffffffffffffffffffffffffffffffffffffffff1673ffffffffffffffffffffffffffffffffffffffff16815260200190815260200160002060008673ffffffffffffffffffffffffffffffffffffffff1673ffffffffffffffffffffffffffffffffffffffff16815260200190815260200160002054610df790919063ffffffff16565b600660003373ffffffffffffffffffffffffffffffffffffffff1673ffffffffffffffffffffffffffffffffffffffff16815260200190815260200160002060008573ffffffffffffffffffffffffffffffffffffffff1673ffffffffffffffffffffffffffffffffffffffff168152602001908152602001600020819055508273ffffffffffffffffffffffffffffffffffffffff163373ffffffffffffffffffffffffffffffffffffffff167fe43a4c0c8b584625b0f915e64cd33950433cbbc5e42b3335ca72d313be300aec846040516106a39190610e63565b60405180910390a36001905092915050565b6000600560008373ffffffffffffffffffffffffffffffffffffffff1673ffffffffffffffffffffffffffffffffffffffff168152602001908152602001600020549050919050565b600060011515600460019054906101000a900460ff161515141561072157600080fd5b81600560003373ffffffffffffffffffffffffffffffffffffffff1673ffffffffffffffffffffffffffffffffffffffff1681526020019081526020016000205410156107a3576040517f08c379a000000000000000000000000000000000000000000000000000000000815260040161079a906110e1565b60405180910390fd5b600073ffffffffffffffffffffffffffffffffffffffff168373ffffffffffffffffffffffffffffffffffffffff1614156107dd57600080fd5b81600660003373ffffffffffffffffffffffffffffffffffffffff1673ffffffffffffffffffffffffffffffffffffffff16815260200190815260200160002060008573ffffffffffffffffffffffffffffffffffffffff1673ffffffffffffffffffffffffffffffffffffffff168152602001908152602001600020819055508273ffffffffffffffffffffffffffffffffffffffff163373ffffffffffffffffffffffffffffffffffffffff167fe1f21c67180317619fcafa578cb44275002011f9ad81f61220c62be2c4415336846040516108bb9190610e63565b60405180910390a36001905092915050565b600060011515600460019054906101000a900460ff16151514156108f057600080fd5b81600560003373ffffffffffffffffffffffffffffffffffffffff1673ffffffffffffffffffffffffffffffffffffffff168152602001908152602001600020541015610972576040517f08c379a0000000000000000000000000000000000000000000000000000000008152600401610969906110e1565b60405180910390fd5b600073ffffffffffffffffffffffffffffffffffffffff168373ffffffffffffffffffffffffffffffffffffffff1614156109e2576040517f08c379a00000000000000000000000000000000000000000000000000000000081526004016109d99061114d565b60405180910390fd5b610a3482600560003373ffffffffffffffffffffffffffffffffffffffff1673ffffffffffffffffffffffffffffffffffffffff16815260200190815260200160002054610e2390919063ffffffff16565b600560003373ffffffffffffffffffffffffffffffffffffffff1673ffffffffffffffffffffffffffffffffffffffff16815260200190815260200160002081905550610ac982600560008673ffffffffffffffffffffffffffffffffffffffff1673ffffffffffffffffffffffffffffffffffffffff16815260200190815260200160002054610df790919063ffffffff16565b600560008573ffffffffffffffffffffffffffffffffffffffff1673ffffffffffffffffffffffffffffffffffffffff168152602001908152602001600020819055508273ffffffffffffffffffffffffffffffffffffffff163373ffffffffffffffffffffffffffffffffffffffff167fbeabacc8ffedac16e9a60acdb2ca743d80c2ebb44977a93fa8e483c74d2b35a884604051610b699190610e63565b60405180910390a36001905092915050565b60003373ffffffffffffffffffffffffffffffffffffffff16600160009054906101000a90505050600073ffffffffffffffffffffffffffffffffffffffff168273ffffffffffffffffffffffffffffffffffffffff161415610c13576040517f08c379a0000000000000000000000000000000000000000000000000000000008152600401610c0a906111b9565b60405180910390fd5b81600160006101000a81548173ffffffffffffffffffffffffffffffffffffffff021916908373ffffffffffffffffffffffffffffffffffffffff1602179055508173ffffffffffffffffffffffffffffffffffffffff167f11bd3ae03dffc45908a76d712d26ce2ed3389fd9a74b3e1468fcaa88557fb37360405160405180910390a260019050919050565b6000600160009054906101000a900473ffffffffffffffffffffffffffffffffffffffff16905090565b606060038054610cd990611208565b80601f0160208091040260200160405190810160405280929190818152602001828054610d0590611208565b8015610d525780601f10610d2757610100808354040283529160200191610d52565b820191906000526020600020905b815481529060010190602001808311610d3557829003601f168201915b5050505050905090565b606060028054610d6b90611208565b80601f0160208091040260200160405190810160405280929190818152602001828054610d9790611208565b8015610de45780601f10610db957610100808354040283529160200191610de4565b820191906000526020600020905b815481529060010190602001808311610dc757829003601f168201915b5050505050905090565b60008054905090565b6000808284610e069190611269565b905083811015610e1957610e186112bf565b5b8091505092915050565b600082821115610e3657610e356112bf565b5b8183610e4291906112ee565b905092915050565b6000819050919050565b610e5d81610e4a565b82525050565b6000602082019050610e786000830184610e54565b92915050565b600080fd5b600073ffffffffffffffffffffffffffffffffffffffff82169050919050565b6000610eae82610e83565b9050919050565b610ebe81610ea3565b8114610ec957600080fd5b50565b600081359050610edb81610eb5565b92915050565b610eea81610e4a565b8114610ef557600080fd5b50565b600081359050610f0781610ee1565b92915050565b60008060408385031215610f2457610f23610e7e565b5b6000610f3285828601610ecc565b9250506020610f4385828601610ef8565b9150509250929050565b60008115159050919050565b610f6281610f4d565b82525050565b6000602082019050610f7d6000830184610f59565b92915050565b600060208284031215610f9957610f98610e7e565b5b6000610fa784828501610ecc565b91505092915050565b610fb981610ea3565b82525050565b6000602082019050610fd46000830184610fb0565b92915050565b600081519050919050565b600082825260208201905092915050565b60005b83811015611014578082015181840152602081019050610ff9565b83811115611023576000848401525b50505050565b6000601f19601f8301169050919050565b600061104582610fda565b61104f8185610fe5565b935061105f818560208601610ff6565b61106881611029565b840191505092915050565b6000602082019050818103600083015261108d818461103a565b905092915050565b7f596f7520646f206e6f7420686176652073756666696369656e742066756e6473600082015250565b60006110cb602083610fe5565b91506110d682611095565b602082019050919050565b600060208201905081810360008301526110fa816110be565b9050919050565b7f596f752063616e742073656e6420746f207a65726f206163636f756e74000000600082015250565b6000611137601d83610fe5565b915061114282611101565b602082019050919050565b600060208201905081810360008301526111668161112a565b9050919050565b7f596f752063616e6e6f7420736574206974206173206f776e6572000000000000600082015250565b60006111a3601a83610fe5565b91506111ae8261116d565b602082019050919050565b600060208201905081810360008301526111d281611196565b9050919050565b7f4e487b7100000000000000000000000000000000000000000000000000000000600052602260045260246000fd5b6000600282049050600182168061122057607f821691505b60208210811415611234576112336111d9565b5b50919050565b7f4e487b7100000000000000000000000000000000000000000000000000000000600052601160045260246000fd5b600061127482610e4a565b915061127f83610e4a565b9250827fffffffffffffffffffffffffffffffffffffffffffffffffffffffffffffffff038211156112b4576112b361123a565b5b828201905092915050565b7f4e487b7100000000000000000000000000000000000000000000000000000000600052600160045260246000fd5b60006112f982610e4a565b915061130483610e4a565b9250828210156113175761131661123a565b5b82820390509291505056fea2646970667358221220ebf4925b583c80518af3470af338b1f28c67a5580a813f6ab45399b83bb3124564736f6c634300080b0033",
  "immutableReferences": {},
  "source": "pragma solidity ^0.8.11;\r\nimport \"./MayoralToken.sol\";\r\ncontract OGG is MayoralToken{\r\n\r\n    constructor(uint _supply)\r\n    MayoralToken(\"Mayoral\",\"OGG\",18){\r\n        Mint(msg.sender, _supply*10**9*(10**(18)));\r\n        emit mint(msg.sender, _supply);\r\n\r\n\r\n}\r\n}",
  "sourcePath": "C:\\Users\\MAYOWA\\Desktop\\TokenVendor\\contracts\\OGGToken.sol",
  "compiler": {
    "name": "solc",
    "version": "0.8.11+commit.d7f03943.Emscripten.clang"
  },
  "schemaVersion": "3.4.5",
  "updatedAt": "2022-06-14T16:36:01.119Z",
  "networkType": "ethereum",
  "devdoc": {
    "kind": "dev",
    "methods": {},
    "version": 1
  },
  "userdoc": {
    "kind": "user",
    "methods": {},
    "version": 1
  }
}