{
  "contractName": "TokenVendor",
  "abi": [
    {
      "inputs": [
        {
          "internalType": "address",
          "name": "tokenAddress",
          "type": "address"
        }
      ],
      "stateMutability": "nonpayable",
      "type": "constructor"
    },
    {
      "anonymous": false,
      "inputs": [
        {
          "indexed": true,
          "internalType": "address",
          "name": "_from",
          "type": "address"
        },
        {
          "indexed": true,
          "internalType": "address",
          "name": "_to",
          "type": "address"
        }
      ],
      "name": "ownerChange",
      "type": "event"
    },
    {
      "anonymous": false,
      "inputs": [
        {
          "indexed": true,
          "internalType": "address",
          "name": "_from",
          "type": "address"
        },
        {
          "indexed": false,
          "internalType": "uint256",
          "name": "_value",
          "type": "uint256"
        }
      ],
      "name": "rateSet",
      "type": "event"
    },
    {
      "anonymous": false,
      "inputs": [
        {
          "indexed": true,
          "internalType": "address",
          "name": "_from",
          "type": "address"
        },
        {
          "indexed": false,
          "internalType": "uint256",
          "name": "_value",
          "type": "uint256"
        }
      ],
      "name": "tokensBought",
      "type": "event"
    },
    {
      "anonymous": false,
      "inputs": [
        {
          "indexed": true,
          "internalType": "address",
          "name": "_from",
          "type": "address"
        },
        {
          "indexed": false,
          "internalType": "uint256",
          "name": "_value",
          "type": "uint256"
        }
      ],
      "name": "tokensSold",
      "type": "event"
    },
    {
      "anonymous": false,
      "inputs": [
        {
          "indexed": true,
          "internalType": "address",
          "name": "_from",
          "type": "address"
        },
        {
          "indexed": true,
          "internalType": "address",
          "name": "_to",
          "type": "address"
        },
        {
          "indexed": false,
          "internalType": "uint256",
          "name": "_value",
          "type": "uint256"
        }
      ],
      "name": "withdraw",
      "type": "event"
    },
    {
      "inputs": [],
      "name": "ShowRate",
      "outputs": [
        {
          "internalType": "uint256",
          "name": "",
          "type": "uint256"
        }
      ],
      "stateMutability": "view",
      "type": "function",
      "constant": true
    },
    {
      "inputs": [
        {
          "internalType": "uint256",
          "name": "_rate",
          "type": "uint256"
        }
      ],
      "name": "SetRate",
      "outputs": [
        {
          "internalType": "bool",
          "name": "success",
          "type": "bool"
        }
      ],
      "stateMutability": "nonpayable",
      "type": "function"
    },
    {
      "inputs": [],
      "name": "ShowOwner",
      "outputs": [
        {
          "internalType": "address",
          "name": "",
          "type": "address"
        }
      ],
      "stateMutability": "view",
      "type": "function",
      "constant": true
    },
    {
      "inputs": [
        {
          "internalType": "address",
          "name": "_owner",
          "type": "address"
        }
      ],
      "name": "ChangeOwner",
      "outputs": [
        {
          "internalType": "bool",
          "name": "success",
          "type": "bool"
        }
      ],
      "stateMutability": "nonpayable",
      "type": "function"
    },
    {
      "inputs": [],
      "name": "BuyTokens",
      "outputs": [
        {
          "internalType": "bool",
          "name": "success",
          "type": "bool"
        }
      ],
      "stateMutability": "payable",
      "type": "function",
      "payable": true
    },
    {
      "inputs": [
        {
          "internalType": "uint256",
          "name": "amount",
          "type": "uint256"
        }
      ],
      "name": "SellTokens",
      "outputs": [
        {
          "internalType": "bool",
          "name": "success",
          "type": "bool"
        }
      ],
      "stateMutability": "payable",
      "type": "function",
      "payable": true
    },
    {
      "inputs": [],
      "name": "TokeninCirculation",
      "outputs": [
        {
          "internalType": "uint256",
          "name": "",
          "type": "uint256"
        }
      ],
      "stateMutability": "view",
      "type": "function",
      "constant": true
    },
    {
      "inputs": [
        {
          "internalType": "address payable",
          "name": "_to",
          "type": "address"
        },
        {
          "internalType": "uint256",
          "name": "amount",
          "type": "uint256"
        }
      ],
      "name": "Withdraw",
      "outputs": [
        {
          "internalType": "bool",
          "name": "success",
          "type": "bool"
        }
      ],
      "stateMutability": "payable",
      "type": "function",
      "payable": true
    }
  ],
  "bytecode": "0x608060405273b4ff0d37c99a3d5281a5da6cbeb3dde2a344380a600260006101000a81548173ffffffffffffffffffffffffffffffffffffffff021916908373ffffffffffffffffffffffffffffffffffffffff1602179055503480156200006657600080fd5b50604051620017763803806200177683398181016040528101906200008c91906200013d565b806000806101000a81548173ffffffffffffffffffffffffffffffffffffffff021916908373ffffffffffffffffffffffffffffffffffffffff160217905550506200016f565b600080fd5b600073ffffffffffffffffffffffffffffffffffffffff82169050919050565b60006200010582620000d8565b9050919050565b6200011781620000f8565b81146200012357600080fd5b50565b60008151905062000137816200010c565b92915050565b600060208284031215620001565762000155620000d3565b5b6000620001668482850162000126565b91505092915050565b6115f7806200017f6000396000f3fe60806040526004361061007b5760003560e01c80639c7ebb301161004e5780639c7ebb3014610143578063d81111ab14610173578063f1e191b214610191578063f2853292146101bc5761007b565b80632640b40114610080578063414b944a146100bd578063884edad9146100e857806396ce267a14610118575b600080fd5b34801561008c57600080fd5b506100a760048036038101906100a29190610d52565b6101f9565b6040516100b49190610d9a565b60405180910390f35b3480156100c957600080fd5b506100d261032d565b6040516100df9190610dc4565b60405180910390f35b61010260048036038101906100fd9190610e3d565b610337565b60405161010f9190610d9a565b60405180910390f35b34801561012457600080fd5b5061012d6104c2565b60405161013a9190610e9e565b60405180910390f35b61015d60048036038101906101589190610d52565b6104ec565b60405161016a9190610d9a565b60405180910390f35b61017b6107f6565b6040516101889190610d9a565b60405180910390f35b34801561019d57600080fd5b506101a6610ab8565b6040516101b39190610dc4565b60405180910390f35b3480156101c857600080fd5b506101e360048036038101906101de9190610ee5565b610ac2565b6040516101f09190610d9a565b60405180910390f35b6000600260009054906101000a900473ffffffffffffffffffffffffffffffffffffffff1673ffffffffffffffffffffffffffffffffffffffff163373ffffffffffffffffffffffffffffffffffffffff161461028b576040517f08c379a000000000000000000000000000000000000000000000000000000000815260040161028290610f6f565b60405180910390fd5b60008214156102cf576040517f08c379a00000000000000000000000000000000000000000000000000000000081526004016102c690610fdb565b60405180910390fd5b816003819055503373ffffffffffffffffffffffffffffffffffffffff167fa3707fbe6132f68343b60033c0b849fe8f8a04031783920bb43a17ab9d61c4328360405161031c9190610dc4565b60405180910390a260019050919050565b6000600354905090565b6000600260009054906101000a900473ffffffffffffffffffffffffffffffffffffffff1673ffffffffffffffffffffffffffffffffffffffff163373ffffffffffffffffffffffffffffffffffffffff16146103c9576040517f08c379a00000000000000000000000000000000000000000000000000000000081526004016103c090611047565b60405180910390fd5b8147101561040c576040517f08c379a0000000000000000000000000000000000000000000000000000000008152600401610403906110b3565b60405180910390fd5b8273ffffffffffffffffffffffffffffffffffffffff166108fc839081150290604051600060405180830381858888f19350505050158015610452573d6000803e3d6000fd5b508273ffffffffffffffffffffffffffffffffffffffff163373ffffffffffffffffffffffffffffffffffffffff167fd9caed12f81c440f63c9677a4301dff8e874a7abd93e3ecd0aaea4ffa129d9fb846040516104b09190610dc4565b60405180910390a36001905092915050565b6000600260009054906101000a900473ffffffffffffffffffffffffffffffffffffffff16905090565b60008060008060009054906101000a900473ffffffffffffffffffffffffffffffffffffffff1673ffffffffffffffffffffffffffffffffffffffff16632e4d59c4306040518263ffffffff1660e01b815260040161054b9190610e9e565b602060405180830381865afa158015610568573d6000803e3d6000fd5b505050506040513d601f19601f8201168201806040525081019061058c91906110e8565b905060008060009054906101000a900473ffffffffffffffffffffffffffffffffffffffff1673ffffffffffffffffffffffffffffffffffffffff16632e4d59c4336040518263ffffffff1660e01b81526004016105ea9190610e9e565b602060405180830381865afa158015610607573d6000803e3d6000fd5b505050506040513d601f19601f8201168201806040525081019061062b91906110e8565b90506000851415610671576040517f08c379a000000000000000000000000000000000000000000000000000000000815260040161066890611161565b60405180910390fd5b848110156106b4576040517f08c379a00000000000000000000000000000000000000000000000000000000081526004016106ab906111cd565b60405180910390fd5b600060035414156106fa576040517f08c379a00000000000000000000000000000000000000000000000000000000081526004016106f190611239565b60405180910390fd5b61070f60035486610c6890919063ffffffff16565b92506107248582610ca990919063ffffffff16565b506107388383610cd090919063ffffffff16565b915061074f83600154610ca990919063ffffffff16565b6001819055503373ffffffffffffffffffffffffffffffffffffffff166108fc849081150290604051600060405180830381858888f1935050505015801561079b573d6000803e3d6000fd5b503373ffffffffffffffffffffffffffffffffffffffff167f23d3a1dba907755077ba075349a7def744774a44dbc61e3d69ff90eef17e9b04866040516107e29190610dc4565b60405180910390a260019350505050919050565b60008060008054906101000a900473ffffffffffffffffffffffffffffffffffffffff1673ffffffffffffffffffffffffffffffffffffffff16632e4d59c4306040518263ffffffff1660e01b81526004016108529190610e9e565b602060405180830381865afa15801561086f573d6000803e3d6000fd5b505050506040513d601f19601f8201168201806040525081019061089391906110e8565b9050600060035414156108db576040517f08c379a00000000000000000000000000000000000000000000000000000000081526004016108d290611239565b60405180910390fd5b600034141561091f576040517f08c379a0000000000000000000000000000000000000000000000000000000008152600401610916906112a5565b60405180910390fd5b600061093660035434610cfc90919063ffffffff16565b90508082101561097b576040517f08c379a000000000000000000000000000000000000000000000000000000000815260040161097290611311565b60405180910390fd5b61099060035434610cfc90919063ffffffff16565b905060008054906101000a900473ffffffffffffffffffffffffffffffffffffffff1673ffffffffffffffffffffffffffffffffffffffff166369ca02dd33836040518363ffffffff1660e01b81526004016109ed929190611331565b6020604051808303816000875af1158015610a0c573d6000803e3d6000fd5b505050506040513d601f19601f82011682018060405250810190610a309190611386565b50610a448183610ca990919063ffffffff16565b9150610a5b81600154610cd090919063ffffffff16565b6001819055503373ffffffffffffffffffffffffffffffffffffffff167f6ebf55d0cee4245affe84127b666e1c5c6614cce8e0de4290cc3210d2b83b63082604051610aa79190610dc4565b60405180910390a260019250505090565b6000600154905090565b6000600260009054906101000a900473ffffffffffffffffffffffffffffffffffffffff1673ffffffffffffffffffffffffffffffffffffffff163373ffffffffffffffffffffffffffffffffffffffff1614610b54576040517f08c379a0000000000000000000000000000000000000000000000000000000008152600401610b4b90611047565b60405180910390fd5b600073ffffffffffffffffffffffffffffffffffffffff168273ffffffffffffffffffffffffffffffffffffffff161415610bc4576040517f08c379a0000000000000000000000000000000000000000000000000000000008152600401610bbb906113ff565b60405180910390fd5b81600260006101000a81548173ffffffffffffffffffffffffffffffffffffffff021916908373ffffffffffffffffffffffffffffffffffffffff1602179055508173ffffffffffffffffffffffffffffffffffffffff163373ffffffffffffffffffffffffffffffffffffffff167f800b16beef0b6d9e5cd0841b191fb9fe7c0523e50ff5b0b7dc596b57b7325d8160405160405180910390a360019050919050565b6000808284610c77919061144e565b90506000841480610c925750828482610c9091906114d7565b145b610c9f57610c9e611508565b5b8091505092915050565b600082821115610cbc57610cbb611508565b5b8183610cc89190611537565b905092915050565b6000808284610cdf919061156b565b905083811015610cf257610cf1611508565b5b8091505092915050565b6000808284610d0b91906114d7565b90508091505092915050565b600080fd5b6000819050919050565b610d2f81610d1c565b8114610d3a57600080fd5b50565b600081359050610d4c81610d26565b92915050565b600060208284031215610d6857610d67610d17565b5b6000610d7684828501610d3d565b91505092915050565b60008115159050919050565b610d9481610d7f565b82525050565b6000602082019050610daf6000830184610d8b565b92915050565b610dbe81610d1c565b82525050565b6000602082019050610dd96000830184610db5565b92915050565b600073ffffffffffffffffffffffffffffffffffffffff82169050919050565b6000610e0a82610ddf565b9050919050565b610e1a81610dff565b8114610e2557600080fd5b50565b600081359050610e3781610e11565b92915050565b60008060408385031215610e5457610e53610d17565b5b6000610e6285828601610e28565b9250506020610e7385828601610d3d565b9150509250929050565b6000610e8882610ddf565b9050919050565b610e9881610e7d565b82525050565b6000602082019050610eb36000830184610e8f565b92915050565b610ec281610e7d565b8114610ecd57600080fd5b50565b600081359050610edf81610eb9565b92915050565b600060208284031215610efb57610efa610d17565b5b6000610f0984828501610ed0565b91505092915050565b600082825260208201905092915050565b7f596f7520617265206e6f7420746865204f776e65720000000000000000000000600082015250565b6000610f59601583610f12565b9150610f6482610f23565b602082019050919050565b60006020820190508181036000830152610f8881610f4c565b9050919050565b7f526174652063616e6e6f74206265203000000000000000000000000000000000600082015250565b6000610fc5601083610f12565b9150610fd082610f8f565b602082019050919050565b60006020820190508181036000830152610ff481610fb8565b9050919050565b7f596f7520617265206e6f7420746865206f776e65720000000000000000000000600082015250565b6000611031601583610f12565b915061103c82610ffb565b602082019050919050565b6000602082019050818103600083015261106081611024565b9050919050565b7f496e73756666696369656e742042616c616e6365000000000000000000000000600082015250565b600061109d601483610f12565b91506110a882611067565b602082019050919050565b600060208201905081810360008301526110cc81611090565b9050919050565b6000815190506110e281610d26565b92915050565b6000602082840312156110fe576110fd610d17565b5b600061110c848285016110d3565b91505092915050565b7f596f752063616e6e6f742073656c6c206e6f7468696e67000000000000000000600082015250565b600061114b601783610f12565b915061115682611115565b602082019050919050565b6000602082019050818103600083015261117a8161113e565b9050919050565b7f496e73756666696369656e7420416d6f756e7400000000000000000000000000600082015250565b60006111b7601383610f12565b91506111c282611181565b602082019050919050565b600060208201905081810360008301526111e6816111aa565b9050919050565b7f5261746520686173206e6f74206265656e207365740000000000000000000000600082015250565b6000611223601583610f12565b915061122e826111ed565b602082019050919050565b6000602082019050818103600083015261125281611216565b9050919050565b7f596f752063616e6e6f742073656e64206e6f7468696e67000000000000000000600082015250565b600061128f601783610f12565b915061129a82611259565b602082019050919050565b600060208201905081810360008301526112be81611282565b9050919050565b7f416d6f756e7420697320746f6f20686967680000000000000000000000000000600082015250565b60006112fb601283610f12565b9150611306826112c5565b602082019050919050565b6000602082019050818103600083015261132a816112ee565b9050919050565b60006040820190506113466000830185610e8f565b6113536020830184610db5565b9392505050565b61136381610d7f565b811461136e57600080fd5b50565b6000815190506113808161135a565b92915050565b60006020828403121561139c5761139b610d17565b5b60006113aa84828501611371565b91505092915050565b7f4e6577206f776e65722063616e6e6f74206265207a65726f2061646472657373600082015250565b60006113e9602083610f12565b91506113f4826113b3565b602082019050919050565b60006020820190508181036000830152611418816113dc565b9050919050565b7f4e487b7100000000000000000000000000000000000000000000000000000000600052601160045260246000fd5b600061145982610d1c565b915061146483610d1c565b9250817fffffffffffffffffffffffffffffffffffffffffffffffffffffffffffffffff048311821515161561149d5761149c61141f565b5b828202905092915050565b7f4e487b7100000000000000000000000000000000000000000000000000000000600052601260045260246000fd5b60006114e282610d1c565b91506114ed83610d1c565b9250826114fd576114fc6114a8565b5b828204905092915050565b7f4e487b7100000000000000000000000000000000000000000000000000000000600052600160045260246000fd5b600061154282610d1c565b915061154d83610d1c565b9250828210156115605761155f61141f565b5b828203905092915050565b600061157682610d1c565b915061158183610d1c565b9250827fffffffffffffffffffffffffffffffffffffffffffffffffffffffffffffffff038211156115b6576115b561141f565b5b82820190509291505056fea2646970667358221220c064fd512adfbc5591b450cb331390044baafd88a2f198cb666db17f9de1d33b64736f6c634300080b0033",
  "immutableReferences": {},
  "source": "pragma solidity ^0.8.11;\r\nimport \"./OGGToken.sol\";\r\ncontract TokenVendor{\r\n    // Has total supply\r\n    // Can Sell to for ether\r\n    // Can buy with ether\r\n    // Shows total token in circulation\r\n    // Shows Total Tokens\r\n    // Sets Rate \r\n    // Shows Rate\r\n\r\n    OGG myogg;\r\n    using SafeMath for uint;\r\n    uint private Circulation;\r\n    address private owner = 0xb4fF0d37C99a3D5281A5Da6cBEb3DDe2a344380A;\r\n    uint private rate;\r\n    mapping(address => uint)Bought;\r\n    mapping(address => uint)Sold;\r\n    event rateSet(address indexed _from,uint _value);\r\n    event ownerChange(address indexed _from,address indexed _to);\r\n    event tokensBought(address indexed _from,uint _value);\r\n    event tokensSold(address indexed _from,uint _value);\r\n    event withdraw(address indexed _from,address indexed _to,uint _value);\r\n    \r\n\r\n    constructor(address tokenAddress){\r\n        myogg = OGG(tokenAddress);\r\n    }\r\n    function ShowRate()external view returns(uint){\r\n        return rate;\r\n    }\r\n    function SetRate(uint _rate)external returns(bool success){\r\n        require(msg.sender == owner,\"You are not the Owner\");\r\n        require(_rate != 0,\"Rate cannot be 0\");\r\n        rate = _rate;\r\n        emit rateSet(msg.sender,_rate);\r\n        return true;\r\n\r\n    }\r\n    function ShowOwner()external view returns(address){\r\n        return owner;\r\n    }\r\n\r\n    function ChangeOwner(address _owner)external returns(bool success){\r\n        require(msg.sender == owner,\"You are not the owner\");\r\n        require(_owner != address(0),\"New owner cannot be zero address\");\r\n        owner = _owner;\r\n        emit ownerChange(msg.sender,_owner);\r\n        return true;\r\n    }\r\n\r\n\r\n    function BuyTokens()external payable returns(bool success){\r\n         uint VendorBalance = myogg.CheckBalance(address(this));\r\n          require(rate != 0,\"Rate has not been set\");\r\n        require(msg.value != 0,\"You cannot send nothing\");\r\n        uint bought = msg.value.div(rate);\r\n        require(VendorBalance >= bought,\"Amount is too high\");\r\n        bought = msg.value.div(rate);\r\n        myogg.Transfer(msg.sender,bought);\r\n        VendorBalance = VendorBalance.sub(bought);\r\n        Circulation = Circulation.add(bought);\r\n        emit tokensBought(msg.sender,bought);\r\n        return true;\r\n    }\r\n\r\n     function SellTokens(uint amount)external payable returns(bool success){\r\n        uint sold;\r\n        uint VendorBalance = myogg.CheckBalance(address(this));\r\n        uint UserBalance = myogg.CheckBalance(msg.sender);\r\n        require(amount != 0,\"You cannot sell nothing\");\r\n        require(UserBalance >= amount,\"Insufficient Amount\");\r\n        require(rate != 0,\"Rate has not been set\");\r\n        sold = amount.mul(rate);\r\n        UserBalance.sub(amount);\r\n        VendorBalance = VendorBalance.add(sold);\r\n        Circulation = Circulation.sub(sold);\r\n        payable(msg.sender).transfer(sold);\r\n        emit tokensSold(msg.sender,amount);\r\n        return true;\r\n    }\r\n\r\n    function TokeninCirculation()external view returns(uint){\r\n        return Circulation;\r\n    }\r\n\r\n    function Withdraw(address payable _to,uint amount)external payable returns(bool success){\r\n        require(msg.sender == owner,\"You are not the owner\");\r\n        require(address(this).balance >= amount,\"Insufficient Balance\");\r\n        _to.transfer(amount);\r\n        emit withdraw(msg.sender,_to,amount);\r\n        return true;\r\n    }\r\n}",
  "sourcePath": "C:\\Users\\MAYOWA\\Desktop\\TokenVendor\\contracts\\TokenVendor.sol",
  "compiler": {
    "name": "solc",
    "version": "0.8.11+commit.d7f03943.Emscripten.clang"
  },
  "schemaVersion": "3.4.5",
  "updatedAt": "2022-06-14T16:36:00.884Z",
  "networkType": "ethereum",
  "devdoc": {
    "kind": "dev",
    "methods": {},
    "version": 1
  },
  "userdoc": {
    "kind": "user",
    "methods": {},
    "version": 1
  }
}